:100000000C943E000C945B000C945B000C945B0021
:100010000C945B000C945B000C945B000C945B00F4
:100020000C945B000C945B000C945B000C945B00E4
:100030000C945B000C945B000C945B000C945B00D4
:100040000C945B000C945B000C94BF010C945B005F
:100050000C94F3000C945B000C945B000C945B001C
:100060000C945B000C945B000C945B000C945B00A4
:100070000C9476010C945B000C945B0011241FBE61
:10008000CFEFD0E1DEBFCDBF11E0A0E0B1E0EEE206
:10009000FCE202C005900D92A831B107D9F718E033
:1000A000A8E1B1E001C01D92A03FB107E1F70E94B5
:1000B000A0140C9415160C94000021E030E0062EDC
:1000C00001C0220F0A94EAF7822B089521E030E064
:1000D000062E01C0220F0A94EAF720958223089584
:1000E0008536910548F46AE070E00E94A91590E118
:1000F000699F800D112408958FEF0895982F929590
:100100009F708F702AE0929F800D112408953F9A6E
:1001100087B18F7C87B98AB180638AB95D985C9A10
:10012000249A0895479A089547980895CF93DF93A6
:100130001F92CDB7DEB786B180738983298189810B
:10014000807290E0959587952071220F280F20935B
:1001500007018091070182958F7080930701998133
:10016000929591708091FC0490FB80F98093FC043F
:10017000998195FB992790F98091FC0490FB81F976
:100180008093FC040F90DF91CF9108955091FC046F
:100190004BB151FB222720F930E0407250E0241788
:1001A000350739F02091FC0421FF02C05D9A01C09F
:1001B0005D983091FC042BB1832F817090E0207109
:1001C00030E08217930739F08091FC0480FF02C071
:1001D0005C9A01C05C988091FC048091FC04869537
:1001E000817090E008951F920F920FB60F92112424
:1001F0002F933F934F935F936F937F938F939F932F
:10020000AF93BF93EF93FF93F8948091C1008F77E2
:100210008093C1004091C600483659F4809147044C
:10022000811104C081E0809347040EC08091450491
:100230003BC050914704513009F041C080914504C2
:100240008F3F29F4109247041092450438C08091E2
:100250004504893048F18091DE062091450490E004
:10026000099630E0821793070CF01EC020914504D8
:100270008091DE0630E090E00A962817390771F485
:10028000463161F4509346048091450480934404C0
:1002900010924704109245042C9A11C02C9A83E3C3
:1002A0000E9432112C98CECFE0914504F0E0EA5242
:1002B000F94F4083809145048F5F8093450480917E
:1002C000C10080688093C1007894FF91EF91BF9145
:1002D000AF919F918F917F916F915F914F913F91DE
:1002E0002F910F900FBE0F901F9018951F920F9295
:1002F0000FB60F9211248F939F93EF93FF938091EA
:10030000C9008F778093C9008091CE0090914B04F3
:10031000913079F4909149049D3058F4E09149046A
:10032000F0E0E250FA4F8083909149049F5F9093F0
:1003300049048A3A31F481E080934B0410924904D5
:1003400010C090914B04913061F4853751F41092B4
:100350004B0480914904809348041092490490937F
:100360004A048091C90080688093C900FF91EF9191
:100370009F918F910F900FBE0F901F9018951F9215
:100380000F920FB60F9211242F935F936F937F9369
:100390008F939F93AF93BF93EF93FF9380911B0134
:1003A00090911C01019690931C0180931B018091F8
:1003B0001B0190911C018037924008F452C01092AA
:1003C0001C0110921B01A8958091190190911A01AE
:1003D00068EC70E00E94A91580931801E091180163
:1003E000F0E0E35EFE4F80818823C9F0E0911801C0
:1003F000F0E0E35EFE4F8081E0911801F0E084368A
:1004000058F0A0911801B0E0A35EBE4F8C918456C5
:10041000E35EFE4F808303C0E35EFE4F1082809157
:10042000190190911A01019690931A018093190174
:100430008091190190911A01883C910520F0109249
:100440001A011092190180913F048F5F80933F043D
:1004500080913F048F3128F010923F0481E0809317
:100460003E0487E386BDFF91EF91BF91AF919F91CD
:100470008F917F916F915F912F910F900FBE0F9091
:100480001F901895BF92CF92DF92EF92FF920F9339
:100490001F93CF93DF93B090FE059091FF0580915D
:1004A0000006F92EE12CE80EF11C909101068091D6
:1004B0000206D92F20E0C22FC80FD11D809103065C
:1004C000823008F0A0C241EEC42E47E0D42ED601FF
:1004D00080E090E0FC01E250FA4F20812D931082E1
:1004E000019685309105B1F747E06CE076E088E64B
:1004F0000E940210809112068093E60780911106F7
:100500008093E707809110068093E80780910E069C
:100510008093E90780910D068093EA0780910C068D
:100520008093EB0783E28093EC071092ED07109223
:10053000EE071092EF0765E170E080E50E9400127F
:10054000182F00E010934D0400934C0466E170E016
:1005500080E50E940012080F111D10934D040093B6
:100560004C0400E010E0F60141916F0160914C04F1
:1005700070914D046F5F7F4F600F711F80E50E9487
:1005800052118FE99FE00197F1F700C000000F5F63
:100590001F4F0F30110539F720914C0430914D0455
:1005A000215F3F4F2F3F9FE3390780F081E290E0CA
:1005B00090934D0480934C0481E08093FD0441E0CE
:1005C00067E170E080E50E9452110EC021323105D2
:1005D00028F030934D0420934C0406C081E290E053
:1005E00090934D0480934C0467E170E080E50E9495
:1005F00000128093FD04813009F052C080914C04B8
:1006000090914D0401969093530480935204492F86
:100610006FE070E080E50E9452114091520460E169
:1006200070E080E50E94521161E170E080E50E9477
:100630000012182F00E0109351040093500462E15F
:1006400070E080E50E940012080F111D1093510404
:100650000093500480915204909153040F5F1F4FF8
:1006600008171907E8F40197492F61E170E080E568
:100670000E94521140915204415062E170E080E5C5
:100680000E9452114091530463E170E080E50E94A2
:1006900052114091520464E170E080E50E945211D1
:1006A00040914D0465E170E080E50E945211409157
:1006B0004C0466E170E080E50E945211C70164E6D7
:1006C00070E00E94A9158091080190E068177907F1
:1006D00008F41AC18091D9079091DA07019649F080
:1006E0008091D9079091DA0701969093DA07809369
:1006F000D9078091DB079091DC078E159F0520F4C8
:100700007093DC076093DB07A0913D042CE02A9FE7
:10071000D0011124AE5DB94F8D919C918C179D072E
:10072000A8F5A0913D042A9FD0011124AE5DB94FD8
:100730001196DC93CE93A0913D04809111062A9FDF
:10074000D0011124AE5DB94F12968C93A0913D0457
:10075000809110062A9FD0011124AE5DB94F1396E7
:100760008C93A0913D0480910E062A9FD001112404
:10077000AE5DB94F14968C93E0913D0480910D06C7
:100780002E9FF0011124EE5DF94F8583A0913D0469
:100790002CE02A9FD0011124AE5DB94F16968D91A1
:1007A0009C911797C817D907B0F5A0913D042A9FCF
:1007B000D0011124AE5DB94F1796DC93CE931697F6
:1007C000A0913D04809111062A9FD0011124AE5DB5
:1007D000B94F18968C93A0913D04809110062A9FE2
:1007E000D0011124AE5DB94F19968C93A0913D04B0
:1007F00080910E062A9FD0011124AE5DB94F1A9642
:100800008C93E0913D0480910D062E9FF001112400
:10081000EE5DF94F838780915504909156048F3097
:10082000974250F0809154048F5F8093540410924B
:1008300056041092550409C08091550490915604B5
:1008400001969093560480935504E091B1048091F1
:10085000120629E02E9FF0011124EC5AFB4F8383EE
:10086000E091B104809111062E9FF0011124EC5A01
:10087000FB4F8483E091B104809110062E9FF0011C
:100880001124EC5AFB4F8583E091B10480910E0650
:100890002E9FF0011124EC5AFB4F8683E091B104A6
:1008A00080910D062E9FF0011124EC5AFB4F878397
:1008B000E091B10480910C062E9FF0011124EC5AB6
:1008C000FB4F8087E091B1042E9FF0011124EC5A78
:1008D000FB4FB3868091B10490E00196289FF00110
:1008E000299FF00D1124EC5AFB4F71836083809196
:1008F000B104893018F01092B1049FC08091B10406
:100900008F5F8093B10499C0C436D10508F095C0BB
:100910008091DF079091E007019649F08091DF0711
:100920009091E00701969093E0078093DF07809114
:10093000B3049091B4048F30974250F08091B20488
:100940008F5F8093B2041092B4041092B30409C074
:100950008091B3049091B40401969093B404809371
:10096000B304A091FB049091120687E08A9FD00106
:100970001124AB54BB4F9C93A091FB0490911106A2
:100980008A9FD0011124AA54BB4F9C93A091FB04D1
:10099000909110068A9FD0011124A954BB4F9C93BB
:1009A000A091FB0490910E068A9FD0011124A854B7
:1009B000BB4F9C93A091FB0490910D068A9FD001A0
:1009C0001124A754BB4F9C93A091FB0490910C065B
:1009D0008A9FD0011124A654BB4F9C93E091FB0445
:1009E0008E9FF0011124E554FB4FB0828091FB04EF
:1009F000893018F01092FB0420C08091FB048F5FB7
:100A00008093FB041AC08330C1F480910B01B701BD
:100A100090E00E94ED1580910B018E5F80930B0199
:100A200080910B01BE0190E00E94ED1580910B01B9
:100A30008E5F80930B0180910B01DF91CF911F910D
:100A40000F91FF90EF90DF90CF90BF9008958AE0D4
:100A500090E00E94DF15853551F580E090E00E941E
:100A6000DF158093060181E090E00E94DF158093FE
:100A7000050182E090E00E94DF158093040183E08D
:100A800090E00E94DF158093030184E090E00E94D3
:100A9000DF158093020185E090E00E94DF158093CE
:100AA000010186E090E00E94DF1580930001089527
:100AB000EF92FF921F93CF93DF931F92CDB7DEB7D4
:100AC000182F81E080934004E62FF0E0DF01A35E61
:100AD000BE4F8C91882361F0DF01AB58BC4F2C9145
:100AE00030E0EE0FFF1FEB51FE4F4081518158C0A7
:100AF0008AEA69830E9442116981862F0E9442110D
:100B00008CEC0E94421185E70E94421180E00EC0E9
:100B100090914A04913071F02FEF30E792E021502C
:100B200030409040E1F700C000008F5F90910501D8
:100B3000891770F380914A04813071F510924A044C
:100B40008091FE05809313018091FF05809314012D
:100B50008091000680931501E12CF12CF701EE5EE7
:100B6000FE4F80810E944211EFEFEE1AFE0AF5E07F
:100B7000EF16F10499F79091FF0580910006392F47
:100B800020E0280F311D9091010680910206592F17
:100B900040E0480F511D04C040E050E020E030E04C
:100BA00010924004113031F0123019F020E030E0A2
:100BB00001C09A01C9010F90DF91CF911F91FF9061
:100BC000EF9008958EEF0E9432118EEF0E94321145
:100BD0008EEF0E9432118EEF0C943211AF92BF92C1
:100BE000DF92EF92FF920F931F93CF93DF93CDB7D6
:100BF000DEB72A970FB6F894DEBF0FBECDBFD82E52
:100C000019821A821B821C821A8619861A8611C0C2
:100C10009A85EA85F0E0E95FFA4F80818353E1E04D
:100C2000F0E0EC0FFD1FE90FF11D80838A858F5FD7
:100C30008A878A85843060F38C818111E0C08B8142
:100C4000813009F0DCC08A81811133C020E8D20EE6
:100C50008981811103C06091010101C0698181E036
:100C60000E9458059093D8078093D7071092F007F9
:100C70008091D7079091D80704E610E0B8010E9450
:100C8000A9150E9470008093F1078091D707909179
:100C9000D807B8010E94A915CB01B8010E94A91577
:100CA0000E9470008093F2078091D7079091D80737
:100CB0002AC08A81813099F58981811130C030E85C
:100CC000D30E1092F0078091D9079091DA0704E6CD
:100CD00010E0B8010E94A9150E9470008093F107EE
:100CE0008091D9079091DA07B8010E94A915CB012C
:100CF000B8010E94A9150E9470008093F2078091AC
:100D0000D9079091DA0760E177E20E94A915CB013B
:100D10000E9470008093F30784E0898770C08A8105
:100D2000823041F58981811125C040E8D40E1092AE
:100D3000F0078091DB079091DC0704E610E0B80132
:100D40000E94A9150E9470008093F1078091DB0733
:100D50009091DC07B8010E94A915CB01B8010E944F
:100D6000A9150E9470008093F2078091DB07909193
:100D7000DC07C9CF8A81833021F48981882309F473
:100D8000E8C6FA8054E0F51232C0898181112FC083
:100D900080E8D80E1092F0078091DF079091E0076D
:100DA00004E610E0B8010E94A9150E94700080932B
:100DB000F1078091DF079091E007B8010E94A91523
:100DC000CB01B8010E94A9150E9470008093F20720
:100DD0008091DF079091E00760E177E20E94A9151A
:100DE000CB010E9470008093F307F98608C08A81C6
:100DF0008F3F29F48981811102C020E8D20E8C81B5
:100E0000833009F088C38B818530A9F58A818111EF
:100E100032C0898181112FC030E8D30E8091B30494
:100E20009091B40498878F838F81988504E610E0B1
:100E3000B8010E94A9150E9470008093F0078F816D
:100E40009885B8010E94A915CB01B8010E94A91587
:100E50000E9470008093F1078091B20490E00E949C
:100E600070008093F2071092F3071092F40710922B
:100E7000F50786E04FC38B81853009F0EBC08A818E
:100E80008111E8C089818B3008F063C6898188238D
:100E900009F45FC640E8D40E99818091B1048917A6
:100EA00058F42091B104898130E0281B3109265F74
:100EB0003F4F38872F8308C08091B104298190E08B
:100EC000821B910998878F838F81988519E0189FDD
:100ED000F001199FF00D1124EC5AFB4F808580938F
:100EE000F0078F819885189FF001199FF00D11244C
:100EF000EC5AFB4F87818093F1078F819885189F6B
:100F0000F001199FF00D1124EC5AFB4F868180935C
:100F1000F2078F819885189FF001199FF00D112419
:100F2000EC5AFB4F85818093F3078F819885189F3A
:100F3000F001199FF00D1124EC5AFB4F848180932E
:100F4000F4078F819885189FF001199FF00D1124E7
:100F5000EC5AFB4F83818093F5071092F6078F813F
:100F600098850196189FF001199FF00D1124EC5AF5
:100F7000FB4F80819181AAE0EA2EF12CB7010E94FB
:100F8000A9152AE0AC01249FC001259F900D1124D2
:100F90000E9470008093F7078F8198850196189FB3
:100FA000F001199FF00D1124EC5AFB4F80819181C3
:100FB000B7010E94A915CB010E9470008093F80729
:100FC0008F819885189FF001199FF00D1124EC5A1C
:100FD000FB4F80858093F9078F819885189FF001DA
:100FE000199FF00D1124EC5AFB4F87818093FA076B
:100FF0008F819885189FF001199FF00D1124EC5AEC
:10100000FB4F86818093FB078F819885189FF001A5
:10101000199FF00D1124EC5AFB4F85818093FC073A
:101020008F819885189FF001199FF00D1124EC5ABB
:10103000FB4F84818093FD078F819885189FF00175
:10104000199FF00D1124EC5AFB4F83818093FE070A
:101050008FE060C2FB8056E0F51235C08A818111B5
:1010600032C0898181112FC080E8D80E809155044B
:101070009091560498878F838F81988504E610E0BD
:10108000B8010E94A9150E9470008093F0078F811B
:101090009885B8010E94A915CB01B8010E94A91535
:1010A0000E9470008093F1078091540490E00E94A8
:1010B00070008093F2071092F3071092F4071092D9
:1010C000F507F98628C28B81863041F58A81811126
:1010D00025C089818B3008F03CC58981882309F4BB
:1010E00038C520E8D20E1092F0071092F10732E1D5
:1010F0003093F20728E12093F30791E09093F407EF
:1011000086E18093F5071092F6071092F707309367
:10111000F8072093F9079093FA07E8C08B81813193
:1011200069F58A8181112AC08981811127C030E83F
:10113000D30E8091B3049091B40404E610E0B8019A
:101140000E94A9150E9470008093F0078091B3045B
:101150009091B404B8010E94A915CB01B8010E9476
:10116000A9150E9470008093F1078091B20490E06D
:101170000E9470008093F20783E0CCC18B818131A3
:1011800009F0B8C08A818111B5C089818B3008F01F
:10119000C2C18981882309F4BEC140E8D40E998177
:1011A0008091FB04891758F42091FB04898130E079
:1011B000281B3109265F3F4F38872F8308C0809155
:1011C000FB04298190E0821B910998878F838F818E
:1011D000988527E0289FF001299FF00D1124E654FF
:1011E000FB4F80818093F0078F819885289FF001C5
:1011F000299FF00D1124E754FB4F80818093F10764
:101200008F819885289FF001299FF00D1124E854C3
:10121000FB4F80818093F2078F819885289FF00192
:10122000299FF00D1124E954FB4F80818093F3072F
:101230008F819885289FF001299FF00D1124EA5491
:10124000FB4F80818093F4078F819885289FF00160
:10125000299FF00D1124EB54FB4F80818093F507FB
:101260008F819885289FF001299FF00D1124E65465
:10127000FB4F80818093F6078F819885289FF0012E
:10128000299FF00D1124E754FB4F80818093F707CD
:101290008F819885289FF001299FF00D1124E85433
:1012A000FB4F80818093F8078F819885289FF001FC
:1012B000299FF00D1124E954FB4F80818093F90799
:1012C0008F819885289FF001299FF00D1124EA5401
:1012D000FB4F80818093FA078F819885289FF001CA
:1012E000299FF00D1124EB54FB4F80818093FB0765
:1012F0008CE010C18B81803109F00DC18A81882377
:1013000051F08A81813039F08A81823021F08A81DE
:10131000833009F000C1898189818B3008F0FBC0DE
:1013200050E8D50E998180913D04891758F4209199
:101330003D04898130E0281B3109215F3F4F388708
:101340002F8308C080913D04298190E0821B910980
:1013500098878F831092F00782E38093F10784E0EF
:101360008093F2071092F30780E98093F4071092BC
:10137000F5071092F60780E18093F7071092F807BF
:101380001092F90780E38093FA071092FB071092FE
:10139000FC078093FD071092FE078F819885ECE093
:1013A000FE2EF89EF001F99EF00D1124EE5DF94F2E
:1013B000808191810AE010E0B8010E94A915FAE04D
:1013C000EF2E9C01E29EC001E39E900D11240E942D
:1013D00070008093FF078F819885F89EF001F99E39
:1013E000F00D1124EE5DF94F80819181B8010E94CA
:1013F000A915CB010E947000809300088F81988509
:10140000F89EF001F99EF00D1124EE5DF94F8581F3
:10141000809301088F819885F89EF001F99EF00D68
:101420001124EE5DF94F8481809302088F819885A5
:10143000F89EF001F99EF00D1124EE5DF94F8381C5
:10144000809303088F819885F89EF001F99EF00D36
:101450001124EE5DF94F8281809304088F81988575
:10146000F89EF001F99EF00D1124EE5DF94F868192
:101470009781B8010E94A915AC01E49EC001E59EC8
:10148000900D11240E947000809305088F8198852B
:10149000F89EF001F99EF00D1124EE5DF94F868162
:1014A0009781B8010E94A915CB010E94700080931A
:1014B00006088F819885F89EF001F99EF00D1124A1
:1014C000EE5DF94F8385809307088F819885F89E9C
:1014D000F001F99EF00D1124EE5DF94F82858093A5
:1014E00008088F819885F89EF001F99EF00D11246F
:1014F000EE5DF94F8185809309088F819885F89E6C
:10150000F001F99EF00D1124EE5DF94F8085809376
:101510000A088BE189871C81143009F016C18B8180
:10152000811128C08A81813029F58981813011F5A6
:1015300050E8D50E47E06CE076E088E60E940210A5
:1015400080910F068093F0070E943211809110065F
:101550008093F1070E943211809111068093F20767
:101560000E943211809112068093F3070E9432117B
:101570001987EBC08B81811119C08A818130B1F448
:101580008981823099F480E8D80E47E06CE076E0FB
:1015900088E60E94021080910C068093F0078091EB
:1015A0000D068093F10780910E0638C08B81811162
:1015B0001DC08A818430D1F489818130B9F420E85A
:1015C000D20E1A860DC0EA85F0E0AA85B0E0A45FCD
:1015D000BE4F8C91E051F84F80838A858F5F8A8758
:1015E0008A85863080F386E08987AFC08B81811140
:1015F00019C08A818E30B1F48981813099F430E844
:10160000D30E1092F0071092F1078091080164E662
:101610000E949D15892F90E00E9470008093F20730
:1016200083E0E2CF8B81811109C08A818E3031F451
:101630008981823019F440E8D40EE3CF8B81811187
:1016400009C08A818E3031F48981833019F450E8E1
:10165000D50E2AC08B8181110BC08A818E3041F456
:101660008981843029F450E8D50E80910A011EC08A
:101670008B8181110EC08A818D3059F4898181302E
:1016800041F450E8D50E82E08093F0071092F10704
:10169000ABCF8B81893059F58A818C3041F58981B6
:1016A000813029F580E8D80E8091090190E0988773
:1016B0008F838F8198850AE010E0B8010E94A915F8
:1016C0002AE0AC01249FC001259F900D11240E94A7
:1016D00070008093F0078F819885B8010E94A9154A
:1016E000CB010E9470008093F10782E07DCF8B8157
:1016F000893059F58A818C3041F5F98052E0F51234
:1017000024C080E8D80E80910A0190E098878F83EA
:101710008F8198850AE010E0B8010E94A9152AE09F
:10172000AC01249FC001259F900D11240E947000E0
:101730008093F0078F819885B8010E94A915CB018D
:101740000E9470008093F107F9868C81853009F042
:10175000E7C08B81843009F0B1C08A81823009F002
:10176000ADC08981882309F4DBC08981893008F004
:10177000D7C050E8D50E80910B0184E690E09E839F
:101780008D8389818530E0F48D819E81398120911E
:101790000B0140E6349F800D911D112430E0281785
:1017A000390708F4D6C14D815E81298130E021508E
:1017B000310960E6629FC001639F900D11240EC045
:1017C0008D819E81298180589E4F30E021503109C2
:1017D00060E6629FA001639F500D1124840F951F46
:1017E0009E838D838D819E818536934028F08D81E7
:1017F0009E8193509E838D831A8604E610E070E1EB
:10180000A72E77E2B72E54C08D819E810E94E715E6
:1018100098878F838D819E8104969E838D83EA8530
:1018200088E1E89FF0011124E051F84F1082EA842A
:1018300028E1E29E700111243FEFE31AF30A8F8141
:101840009885B8010E94A9150E947000F701E05127
:10185000F84F8083EA8448E1E49E7001112452E04D
:10186000E50EF11C8F819885B8010E94A915CB0166
:10187000B8010E94A9150E947000F701E051F84FCD
:101880008083EA8488E1E89E7001112423E0E20E5F
:10189000F11C8F819885B5010E94A915CB010E948A
:1018A0007000F701E051F84F80838A858F5F8A8747
:1018B0008A85883108F4A8CF80E631C08B818630D4
:1018C000B9F48A81811114C08981882349F1898101
:1018D000883030F530E8D30E1092F0071092F107FF
:1018E0001092F2071092F3071092F40785E017C0E8
:1018F0008B818630A9F48A81813091F48981882393
:1019000079F08981883060F440E8D40E1092F007B5
:101910001092F1071092F2071092F30784E0898782
:101920008C81823009F095C08B81813009F091C0A3
:10193000898181118EC08A81813031F08A81823023
:1019400019F08A81833039F550E8D50E6091010194
:1019500082E00E94580598878F838F8198850AE0DE
:1019600010E0B8010E94A9152AE0AC01249FC00133
:10197000259F900D11240E9470008093F0078F81A5
:101980009885B8010E94A915CB010E947000809330
:10199000F10782E05DC08A818F3F09F0DAC050E82C
:1019A000D50E6091010182E00E94580598878F83CF
:1019B0008F8198850AE010E0B8010E94A9156AE0BD
:1019C000F62E9C01F29EC001F39E900D11240E9400
:1019D00070008093F0078F819885B8010E94A91547
:1019E000CB010E9470008093F1078F819885B80128
:1019F0000E94A915AC01F49EC001F59E900D112422
:101A00000E9470008093F2078F819885B8010E9430
:101A1000A915CB010E9470008093F3078F819885F0
:101A2000B8010E94A9159C01F29EC001F39E900D81
:101A300011240E9470008093F4078F819885B8016B
:101A40000E94A915CB010E9470008093F50786E0E3
:101A500089870E94E20588E60E94321188E6809319
:101A600043041A8614C0EA85F0E0E45FFE4F8081EB
:101A70000E94321190914304EA85F0E0E45FFE4F4A
:101A80008081890F809343048A858F5F8A878A8546
:101A9000863048F388E60E943211809143048859C9
:101AA000809343048D2D0E943211809143048D0D4B
:101AB0008093430489858C5F0E9432118091430496
:101AC0009985890F8C5F809343041A861CC08A8590
:101AD000E1E0F0E0EC0FFD1FE80FF11D80818D5C6F
:101AE0000E943211809143049A85E1E0F0E0EC0F0E
:101AF000FD1FE90FF11D90818D5C890F80934304D8
:101B00008A858F5F8A878A85843008F31A8616C093
:101B1000EA85F0E0E051F84F80818D5C0E9432113F
:101B200080914304EA85F0E0E051F84F90818D5CAC
:101B3000890F809343048A858F5F8A879A85898578
:101B4000981730F3809143040E94321186E10E947D
:101B500032112A960FB6F894DEBF0FBECDBFDF91CB
:101B6000CF911F910F91FF90EF90DF90BF90AF90BA
:101B70000895CF92EF920F931F93CF93DF93CDB73A
:101B8000DEB728970FB6F894DEBF0FBECDBF19821F
:101B90001A821B821C8218861F82188611C09885A3
:101BA000E885F0E0E95FFA4F80818353E1E0F0E0FF
:101BB000EC0FFD1FE90FF11D808388858F5F8887FB
:101BC0008885843060F38DE08F838F81888770E013
:101BD0000AC0E885F0E0E250FB4F808183538083A8
:101BE00088858F5F888728858F8130E0AB01480F1B
:101BF000511DCA0104972817390758F38C81843086
:101C000009F012C18B8181110FC18A81813079F471
:101C10008981813061F4B6E1CB2E12E0E12E02E23F
:101C200021E040E060E080E00E948910FDC08A81F0
:101C3000813041F58981823029F5EF81F0E0E25071
:101C4000FB4F408160E070E088E60E9452118F8176
:101C50008F5F8F83EF81F0E0E250FB4F408161E0C6
:101C600070E088E60E9452118F818F5F8F83EF8131
:101C7000F0E0E250FB4F408162E070E088E60E94B5
:101C80005211D2C08A818430C9F489818130B1F483
:101C9000188610C0E885F0E0AF81B0E0A250BB4FDD
:101CA0008C91E45FFE4F808388858F5F88878F816A
:101CB0008F5F8F838885863068F3B6C08A818E30C7
:101CC00081F48981813019F08981823051F4EF816A
:101CD000F0E0E050FB4F80810E947E00809308017D
:101CE000A3C08A818E3011F589818330F9F4EF81A8
:101CF000F0E0E250FB4F80810E947E006AE00E948B
:101D00009D1590E09E838D838F818F5F8F830D81E2
:101D10001E81EF81F0E0E250FB4F80810E947E0047
:101D20005AE0859F000D111D112449C08A818E3013
:101D300011F589818430F9F4EF81F0E0E250FB4F36
:101D400080810E947E006AE00E949D1590E09E8343
:101D50008D838F818F5F8F830D811E81EF81F0E0F6
:101D6000E250FB4F80810E947E009AE0899F000D27
:101D7000111D11244FC08A818C3041F58981813039
:101D800029F5EF81F0E0E250FB4F80810E947E0058
:101D90006AE00E949D1590E09E838D838F818F5F06
:101DA0008F830D811E81EF81F0E0E250FB4F808137
:101DB0000E947E004AE0849F000D111D11241E83A5
:101DC0000D838D819E81809309012EC08A818C3084
:101DD00041F58981823029F5EF81F0E0E250FB4F37
:101DE00080810E947E006AE00E949D1590E09E83A3
:101DF0008D838F818F5F8F830D811E81EF81F0E056
:101E0000E250FB4F80810E947E005AE0859F000DCA
:101E1000111D11241E830D838D819E8180930A01E3
:101E200003C081E10E94321128960FB6F894DEBFFC
:101E30000FBECDBFDF91CF911F910F91EF90CF904B
:101E400008950F931F93CF93DF93EC0180910405C6
:101E5000883611F080E171C08093430420E030E0C7
:101E60008E010150110909C0F901E250FB4F808138
:101E7000890F809343042F5F3F4F909143042017B5
:101E8000310794F302501B4FF8018081981769F0D5
:101E900080E20E943211809143040E943211F801C5
:101EA00080810E9432118C2F48C080E090E0FC01BC
:101EB000E45FFE4F3081FC01E250FB4F208132177E
:101EC00041F02081293929F020812A3A11F080E35C
:101ED00034C001968630910551F7809105058093B5
:101EE000420480910605809341048091420482312E
:101EF000B9F028F4883001F18131D9F406C0843179
:101F000089F0D0F08531A9F417C080914104843064
:101F100011F080E412C0809142040E94EE050CC0D2
:101F200080E508C060914104809142040E94B90D8F
:101F300003C080EF0E94321180E0DF91CF911F91AA
:101F40000F910C94321194EA9093BC009091BC00D4
:101F500097FFFCCF9091B900987F983011F080E006
:101F60000895880F8093BB0094E89093BC009091F3
:101F7000BC0097FFFCCF9091B900987F983179F71A
:101F80006093BB0094E89093BC009091BC0097FFD5
:101F9000FCCF9091B900987F983209F794EA90931A
:101FA000BC009091BC0097FFFCCF9091B900987F46
:101FB0009031A9F68F5F8093BB0084E88093BC00CA
:101FC0008091BC0087FFFCCF8091B900887F80346E
:101FD00031F684E88093BC008091BC0087FFFCCF81
:101FE0008091B900887F883509F0B9CF8091BB0016
:101FF00094E99093BC00EFE1FEE43197F1F700C063
:1020000000000895F89494EA9093BC009091BC006D
:1020100097FFFCCF9091B900987F983011F080E045
:102020000895880F8093BB0094E89093BC00909132
:10203000BC0097FFFCCF9091B900987F983179F759
:102040001092BB0094E89093BC009091BC0097FF65
:10205000FCCF9091B900987F983209F794EA909359
:10206000BC009091BC0097FFFCCF9091B900987F85
:102070009031A9F68F5F8093BB0084E88093BC0009
:102080008091BC0087FFFCCF8091B900887F8034AD
:1020900031F650E0842F90E0019716C02091BC00EB
:1020A00020642093BC002091BC0027FFFCCF20912E
:1020B000B900287F203509F0B2CF2091BB00FB0189
:1020C000E50FF11D20835F5F252F30E028173907CA
:1020D0002CF384E88093BC008091BC0087FFFCCF88
:1020E0008091B900887F883509F099CF8091BB0035
:1020F000FB01E40FF11D3197808384E98093BC00DC
:102100008FE19EE40197F1F700C00000789481E030
:102110000895CF92EF92FF920F931F93CF93DF9387
:102120001F92CDB7DEB7F62E142F482F60E070E077
:1021300088E629830E9452118FE39CE90197F1F709
:1021400000C000004F2D61E070E088E60E9452114F
:10215000EFE3FCE93197F1F700C00000412F62E0A6
:1021600070E088E60E9452118FE39CE90197F1F735
:1021700000C000002981422F63E070E088E60E94E1
:102180005211EFE3FCE93197F1F700C00000402F56
:1021900064E070E088E60E9452118FE39CE90197A9
:1021A000F1F700C000004E2D65E070E088E60E9467
:1021B0005211EFE3FCE93197F1F700C000004C2D1C
:1021C00066E070E088E60E9452118FE39CE9019777
:1021D000F1F700C000000F90DF91CF911F910F9198
:1021E000FF90EF90CF900895CF93DF939C011092D2
:1021F000C000C1ECD0E0188286E08093C20040E0CD
:1022000050E060E472E48FE090E00E94BD15215040
:1022100031092093C4003093C50088E98883519A1E
:10222000DF91CF910895CF93DF939C011092C80066
:10223000C9ECD0E0188286E08093CA0040E050E00C
:1022400060E472E48FE090E00E94BD1521503109F6
:102250002093CC003093CD0088E98883539ADF9196
:10226000CF9108959091C00095FFFCCF8093C60058
:102270008091C00086FFFCCF8091C0008064809375
:10228000C00008959091C80095FFFCCF8093CE00C8
:102290008091C80086FFFCCF8091C8008064809345
:1022A000C800089594EA9093BC009091BC0097FFF9
:1022B000FCCF9091B900987F983009F02BC0880F1F
:1022C0008093BB0084E88093BC008091BC0087FFB2
:1022D000FCCF8091B900887F8831E1F47093BB0016
:1022E00084E88093BC008091BC0087FFFCCF809184
:1022F000B900887F883271F46093BB0084E88093D2
:10230000BC008091BC0087FFFCCF8091B900887F22
:10231000883211F080E008954093BB0084E88093F8
:10232000BC008091BC0087FFFCCF8091B900887F02
:10233000883281F784E98093BC008FE59AEE01979B
:10234000F1F700C0000081E00895F89494EA9093BA
:10235000BC009091BC0097FFFCCF9091B900987F92
:10236000983011F080E00895880F8093BB0084E8D6
:102370008093BC008091BC0087FFFCCF8091B900A6
:10238000887F883179F77093BB0084E88093BC0024
:102390008091BC0087FFFCCF8091B900887F883294
:1023A00009F76093BB0084E88093BC008091BC0077
:1023B00087FFFCCF8091B900887F883299F6FA01B7
:1023C00094E80EC081918093BB009093BC008091F3
:1023D000BC0087FFFCCF8091B900887F883211F65E
:1023E0008E2F841B821770F384E98093BC008FE1E9
:1023F0009EE40197F1F700C00000789481E0089511
:1024000094EA9093BC009091BC0097FFFCCF909110
:10241000B900987F983009F02CC0982F990F9093AD
:10242000BB0094E89093BC009091BC0097FFFCCF58
:102430009091B900987F9831E1F47093BB0094E8D3
:102440009093BC009091BC0097FFFCCF9091B90095
:10245000987F983271F46093BB0094E89093BC002D
:102460009091BC0097FFFCCF9091B900987F983273
:1024700011F080E0089594EA9093BC009091BC0024
:1024800097FFFCCF9091B900987F903191F790E041
:10249000880F991F81608093BB0084E88093BC0003
:1024A0008091BC0087FFFCCF8091B900887F803489
:1024B00001F784E88093BC008091BC0087FFFCCFCB
:1024C0008091BB0094E99093BC00EFE1FEE431976A
:1024D000F1F700C000000895F89494EA9093BC00CE
:1024E0009091BC0097FFFCCF9091B900987F9830F5
:1024F00011F080E00895880F8093BB0094E89093DA
:10250000BC009091BC0097FFFCCF9091B900987FE0
:10251000983179F77093BB0094E89093BC00909148
:10252000BC0097FFFCCF9091B900987F983209F7D3
:102530006093BB0094E89093BC009091BC0097FF1F
:10254000FCCF9091B900987F983299F694EA9093D5
:10255000BC009091BC0097FFFCCF9091B900987F90
:10256000903139F68F5F8093BB0084E88093BC0084
:102570008091BC0087FFFCCF8091B900887F8034B8
:1025800009F0B7CF30E0822F90E0019716C060913C
:10259000BC0060646093BC006091BC0067FFFCCF2E
:1025A0006091B900687F603509F0A3CF6091BB00EE
:1025B000FA01E30FF11D60833F5F632F70E068173E
:1025C00079072CF384E88093BC008091BC0087FFDE
:1025D000FCCF8091B900887F883509F08ACF80913F
:1025E000BB00FA01E20FF11D3197808384E98093EB
:1025F000BC008FE19EE40197F1F700C000007894E1
:1026000081E0089541E060E070E080E50E945211B1
:1026100040E06FE070E080E50E94521142E260E12C
:1026200070E080E50E94521140E061E170E080E5D9
:102630000E94521141E262E170E080E50E94521175
:1026400040E063E170E080E50E94521142E264E103
:1026500070E080E50E94521140E065E170E080E5A5
:102660000E94521141E266E170E080E50E94521141
:1026700040E067E170E080E50C9452118F929F92E8
:10268000AF92BF92CF92DF92EF92FF920F931F9380
:10269000CF93DF9360E070E080E50E940012805DE0
:1026A0000E9432118AE00E9432116FE070E080E5F2
:1026B0000E940012C82F60E170E080E50E940012C5
:1026C000DC2EC12CC80ED11C30E1A32E37E2B32E74
:1026D000C601B5010E94A915EC01862F805D0E94FC
:1026E000321148EEE42E43E0F42ECE01B7010E94F1
:1026F000A915862F805D0E943211C601B7010E9484
:10270000A91504E610E0B8010E94A915862F805D86
:102710000E943211C601B8010E94A915CAE0D0E09A
:10272000BE010E94A915862F805D0E943211C6014C
:10273000BE010E94A915805D0E9432118AE00E94AC
:1027400032118FE19EE40197F1F700C0000061E1D2
:1027500070E080E50E940012982E62E170E080E552
:102760000E940012D92CC12CC80ED11CC601B50183
:102770000E94A9154C01862F805D0E943211C40170
:10278000B7010E94A915862F805D0E943211C601F3
:10279000B7010E94A915B8010E94A915862F805D76
:1027A0000E943211C601B8010E94A915BE010E9403
:1027B000A915862F805D0E943211C601BE010E94BC
:1027C000A915805D0E9432118AE00E9432118FE1CA
:1027D0009EE40197F1F700C0000063E170E080E53E
:1027E0000E940012982E64E170E080E50E940012C1
:1027F000D92CC12CC80ED11CC601B5010E94A91547
:102800004C01862F805D0E943211C401B7010E94E5
:10281000A915862F805D0E943211C601B7010E9462
:10282000A915B8010E94A915862F805D0E9432115A
:10283000C601B8010E94A915BE010E94A915862FE4
:10284000805D0E943211C601BE010E94A915805D03
:102850000E9432118AE00E9432118FE19EE40197BA
:10286000F1F700C0000065E170E080E50E94001211
:10287000982E66E170E080E50E940012D92CC12CF0
:10288000C80ED11CC601B5010E94A9155C01862F96
:10289000805D0E943211C501B7010E94A915862FE3
:1028A000805D0E943211C601B7010E94A915B801CE
:1028B0000E94A915862F805D0E943211C601B801C1
:1028C0000E94A915BE010E94A915862F805D0E9455
:1028D0003211C601BE010E94A915805D0E9432110D
:1028E0008AE00E9432118FE19EE40197F1F700C067
:1028F000000067E170E080E50E940012805D0E94A8
:1029000032118AE0DF91CF911F910F91FF90EF90EC
:10291000DF90CF90BF90AF909F908F900C9432112A
:10292000E0E6F0E080818861808389E28083089519
:1029300084E085BD81E080936E0087E386BD0895C5
:10294000CF93DF9300D01F92CDB7DEB71B821A82E0
:10295000F89480E28093B80084E48093BC001092E5
:10296000B90080E699E00E94F41080E096E90E94A8
:1029700013110E9498140E9490140E9487000E94D4
:10298000270578942FEF80E792E021508040904017
:10299000E1F700C000002C9A85E50E9432112C98C6
:1029A0001092540410925604109255041092B104DF
:1029B0001092FB04E0913D042CE0E29FF001112411
:1029C000EE5DF94F8CED90E0978386830CE0F02E5E
:1029D0000CED10E080914A048130D1F5F89410920A
:1029E0004A048091FE05809313018091FF05809336
:1029F000140180910006809315011B820AC0EB81AF
:102A0000F0E0EE5EFE4F80810E9442118B818F5F6D
:102A10008B838B81853098F380914804863051F404
:102A20000E94920080914004811102C00E944202E3
:102A30000E9494001B8208C0EB81F0E0E250FA4F44
:102A400010828B818F5F8B838B818E30A8F378947B
:102A5000809146048130D9F5109246042C9A0E9448
:102A600092008FEF99EF20E0815090402040E1F7F5
:102A700000C000001A8212C0EA81F0E0AA81B0E032
:102A8000AA52B94F8C91E250FB4F8083EA81F0E06B
:102A9000EA52F94F10828A818F5F8A839A818091EE
:102AA0004404981748F31A8203C08A818F5F8A838F
:102AB0009A81809144049817C0F38091440490E077
:102AC0000E94210F109244040E9494002C9880913F
:102AD0003E04813009F07ECF10923E0462E088E629
:102AE0000E94A30F898399818091D607981708F0D7
:102AF00071CF89818093D6071092DA071092D90797
:102B00001092DC071092DB071092E0071092DF07AB
:102B100080913D048F5F80933D0480913D048F3010
:102B200010F010923D04E0913D04FE9EF00111244E
:102B3000EE5DF94F178306834DCF991B79E004C0F2
:102B4000991F961708F0961B881F7A95C9F78095EC
:102B50000895AA1BBB1B51E107C0AA1FBB1FA617E4
:102B6000B70710F0A61BB70B881F991F5A95A9F736
:102B700080959095BC01CD010895A1E21A2EAA1B63
:102B8000BB1BFD010DC0AA1FBB1FEE1FFF1FA2171D
:102B9000B307E407F50720F0A21BB30BE40BF50B1A
:102BA000661F771F881F991F1A9469F760957095A3
:102BB000809590959B01AC01BD01CF010895F999D5
:102BC000FECF92BD81BDF89A992780B50895A8E1FE
:102BD000B0E042E050E00C94F5150196272F0E94DA
:102BE00004160C940316DC01CB01FC01F999FECF0D
:102BF00006C0F2BDE1BDF89A319600B40D92415085
:102C00005040B8F70895262FF999FECF92BD81BDA7
:102C1000F89A019700B4021639F01FBA20BD0FB61A
:0E2C2000F894FA9AF99A0FBE0895F894FFCF2F
:102C2E00320128280A1E14010AF0C864123456789C
:082C3E009012AA0000007500CD
:00000001FF
